:03000000020439BE
:0C043900787FE4F6D8FD7581200203A650
:0F0429007D607C09ED1D70011C144C70F7DFF134
:0104380022A1
:10004E00EFD394077480948040037F0122120360E3
:10005E00FED394037480948040037F0222EF704499
:10006E00EE700B900001120379F452935294120326
:10007E00606401700B9000011203794293F4529464
:10008E00120360FE6402700A90000112037942931B
:10009E004294EE6403700D900001120379FEF45247
:1000AE0093EE4294EF64017046120360FE700B9063
:1000BE000001120379F452915292EE6401700B908A
:1000CE0000011203794291F452921203606402709D
:1000DE000A90000112037942914292120360640366
:1000EE00700D900001120379FEF45291EE4292EFE0
:1000FE0064027046120360FE700B900001120379C9
:10010E00F452955296EE6401700B90000112037931
:10011E004295F452961203606402700A9000011226
:10012E000379429542961203606403700D900001AC
:10013E00120379FEF45295EE4296EF640370461266
:10014E000360FE700B900001120379F452B152B2AB
:10015E00EE6401700B90000112037942B1F452B2B9
:10016E001203606402700A90000112037942B142D8
:10017E00B21203606403700D900001120379FEF455
:10018E0052B1EE42B2EF64047046120360FE700B81
:10019E00900001120379F452B352B4EE6401700B65
:1001AE0090000112037942B3F452B4120360640258
:1001BE00700A90000112037942B342B412036064D4
:1001CE0003700D900001120379FEF452B3EE42B4A7
:1001DE00EF64057046120360FE700B90000112036F
:1001EE0079F452C952CAEE6401700B9000011203E9
:1001FE007942C9F452CA1203606402700A90000177
:10020E0012037942C942CA1203606403700D900052
:10021E0001120379FEF452C9EE42CAEF640670462B
:10022E00120360FE700B900001120379F452CB5250
:10023E00CCEE6401700B90000112037942CBF452A4
:10024E00CC1203606402700A90000112037942CB53
:10025E0042CC1203606403700D900001120379FE0C
:10026E00F452CBEE42CCEF64077049120360FF7E6E
:10027E0000700B900001120379F452E152E2EF6428
:10028E00014E700B90000112037942E1F452E2121A
:10029E0003606402700A90000112037942E142E2A7
:1002AE001203606403700D900001120379FFF45283
:0702BE00E1EF42E27F0022A4
:080445000102040810204080B0
:1003F80075090CE4F508FB7A0079087F0312004EB2
:10040800750930E4F508FB7A0079087F0502004E8B
:1003D600750801750901E4F50AF50BF50CF50D75BF
:1003E6000E01F50F751004FB7A0079081202C5D2CA
:0103F600A264
:0103F70022E3
:1003A6001203F81203D6E4F513E51390044593F40B
:1003B600F5C8F5B00513D3E513940774809480400F
:1003C60003E4F5137FFA1204297FFA12042980D96F
:1002C5009000011203796401700553CE7F800343CA
:1002D500CE801203606401700543CE40800353CE87
:1002E500BF9000021203796401700543CE2080039C
:1002F50053CEDF900003120379700553CEEF8003D0
:1003050043CE109000041203796401700543CE08B2
:10031500800353CEF7900005120379700543CE0490
:10032500800353CEFB9000061203796401700543E8
:10033500AF02800353AFFD9000071203795403FF0A
:10034500E5CE54FC4FF5CE900008120379FFE5A2E7
:0B03550054F34FF5A2E4F512C20022A1
:10041800EF700753CEEF53CE7F2243CE1043CE80EA
:0104280022B1
:08044D008FCFD2002000FD2238
:03004B00020003AD
:10000300C0E0C083C082C0D075D000C007E5CE3049
:10001300E404C2008022C3E511948074809480407C
:1000230003751100AF11051174002FF582E434003C
:10003300F583E5CFF075120575CDC0D007D0D0D0CC
:0600430082D083D0E03200
:10036000BB010689828A83E0225002E722BBFE029B
:09037000E32289828A83E49322CE
:10037900BB010CE58229F582E5833AF583E0225039
:1003890006E92582F8E622BBFE06E92582F8E22283
:0D039900E58229F582E5833AF583E493229D
:00000001FF
