:1000000002165AB2CC32021D6D3232020003900247
:100010001CECF0A3EDF012019CFF220200097F0C02
:100020002232320216E6AF05900220ECF0A3EFF088
:100030007F181219FBEF64017F0070027F0122908C
:0A0040000220ECF0A3EDF00213E93A
:10004B00021AAA12000EAD077F14121B41EF6401B6
:07005B007F0070027F01220B
:1000630002000A9001FDE0FBA3E0FAA3E0F9C0035C
:10007300C002C0019001FAE0FBA3E0FAA3E0F9D0CB
:1000830082D083D0E06B7008E965827003EA6583F0
:070093007F0060027F0122E3
:03009B000200213F
:1000A300020022E709F608DFFA8046E709F208DFD3
:1000B300FA803E88828C83E709F0A3DFFA8032E37B
:1000C30009F608DFFA8078E309F208DFFA8070881E
:1000D300828C83E309F0A3DFFA806489828A83E058
:1000E300A3F608DFFA805889828A83E0A3F208DF47
:1000F300FA804C80D280FA80C680D4806980F280F6
:1001030033801080A680EA809A80A880DA80E2801B
:10011300CA803389828A83ECFAE493A3C8C582C870
:10012300CCC583CCF0A3C8C582C8CCC583CCDFE9DA
:10013300DEE7800D89828A83E493A3F608DFF9EC76
:10014300FAA9F0EDFB2289828A83ECFAE0A3C8C501
:1001530082C8CCC583CCF0A3C8C582C8CCC583CC28
:10016300DFEADEE880DB89828A83E493A3F208DF97
:10017300F980CC88F0EF60010E4E60C388F0ED2467
:1001830002B4040050B9F582EB2402B4040050AF6A
:1001930023234582239000F673BB010689828A8359
:1001A300E0225002E722BBFE02E32289828A83E433
:1001B3009322BB010CE58229F582E5833AF583E0BE
:1001C300225006E92582F8E622BBFE06E92582F8DD
:1001D300E222E58229F582E5833AF583E49322BBA3
:1001E300010689828A83F0225002F722BBFE01F3C3
:1001F30022F8BB010DE58229F582E5833AF583E810
:10020300F0225006E92582C8F622BBFE05E92582C5
:10021300C8F222C5F0F8A3E028F0C5F0F8E582158E
:100223008270021583E038F022A3F8E0C5F025F0D0
:10023300F0E582158270021583E0C838F0E822BB2E
:100243000110E58229F582E5833AF583E0F5F0A311
:10025300E0225009E92582F886F008E622BBFE0A6F
:10026300E92582F8E2F5F008E222E5832AF583E93D
:1002730093F5F0A3E9932275F008758200EF2FFF41
:10028300EE33FECD33CDCC33CCC58233C5829BED6B
:100293009AEC99E58298400CF582EE9BFEED9AFD6F
:1002A300EC99FC0FD5F0D6E4CEFBE4CDFAE4CCF91F
:1002B300A88222B800C1B90059BA002DEC8BF08492
:1002C300CFCECDFCE5F0CBF97818EF2FFFEE33FE60
:1002D300ED33FDEC33FCEB33FB10D703994004EB18
:1002E30099FB0FD8E5E4F9FA227818EF2FFFEE33E4
:1002F300FEED33FDEC33FCC933C910D7059BE99AF6
:100303004007EC9BFCE99AF90FD8E0E4C9FAE4CC86
:10031300FB2275F010EF2FFFEE33FEED33FDCC33F0
:10032300CCC833C810D7079BEC9AE899400AED9BD9
:10033300FDEC9AFCE899F80FD5F0DAE4CDFBE4CCB8
:10034300FAE4C8F922EB9FF5F0EA9E42F0E99D42F8
:10035300F0E89C45F022E8600FECC313FCED13FDBD
:10036300EE13FEEF13FFD8F122E8600FEFC333FF64
:10037300EE33FEED33FDEC33FCD8F122BB010DE58A
:100383008229F582E5833AF58302041F5007E925A4
:1003930082F8020412BBFE07E92582F802042BE56A
:1003A3008229F582E5833AF583020438ECF0A3ED64
:1003B300F0A3EEF0A3EFF022A8828583F0D083D0E0
:1003C300821203D21203D21203D21203D2E473E4D1
:1003D30093A3C583C5F0C583C8C582C8F0A3C583ED
:1003E300C5F0C583C8C582C822D083D082F8E49300
:1003F3007012740193700DA3A393F8740193F582A3
:100403008883E4737402936860EFA3A3A380DFE699
:10041300FB08E6F908E6FA08E6CBF822E0F8A3E0E1
:10042300F9A3E0FAA3E0FB22E2FB08E2F908E2FA0F
:1004330008E2CBF822E493F8740193F9740293FA77
:10044300740393FB22F8E0FBA3A3E0F925F0F0E5A6
:1004530082158270021583E0FA38F022EBF0A3EAEA
:10046300F0A3E9F022E508241CF582E43402F583C5
:10047300E005082290021930070390021CE475F08E
:100483000112044802019C2000E97F2ED20080184B
:10049300EF540F2490D43440D4FF30040BEF24BF27
:1004A300B41A0050032461FFE50960021509050C25
:1004B300E50C7002050B30070E900219E475F0018C
:1004C300120448EF0201E2021DE77403D20780031E
:1004D300E4C207F50890021912045FE4F509F50B6D
:1004E300F50CE50960077F201204AB80F5750AFF60
:1004F300C201C200C202C203C205C206C20812047C
:1005030077FF700D3007057F001204BCAF0CAE0BF4
:1005130022B4255FC2D5C204120477FF24D0B40AE3
:1005230000501A75F00A780930D50508B6FF0106A0
:10053300C6A426F620D5047002D20380D924CFB4F2
:100543001A00EF5004C2E5D2040206BDD20180C6F0
:10055300D20080C0D20280BCD2D580BAD20580B48A
:100563007F201204AB2002077401B5090040F11289
:100573000468FF1204AB0204E5D208D20680951288
:100583000468FB120468FA120468F94A4B7006798E
:100593008E7A077BFF20022EE509602A7E008E8279
:1005A3007583001201B560060EEE650A70F0C2D5C0
:1005B300EBC0E0EAC0E0E9C0E0EE120704D0E0F9E6
:1005C300D0E0FAD0E0FB12019CFF60AAEBC0E0EAA6
:1005D300C0E0E9C0E01204ABD0E02401F9D0E0347C
:1005E30000FAD0E0FBE50A0460DCD50AD980877BFA
:1005F300FF7A077900D202809C791080027908C2C1
:1006030006C2088008D2D5790A8004790AC2D5E5E2
:100613000A047002F50AE4FAFDFEFF120468FC7B8B
:1006230008200113120468FD7B1030000A120468CD
:10063300FE120468FF7B20EC3382D592D55013C39E
:10064300E43000069FFFE49EFEE42001039DFDE4E9
:100653009CFCE4CBF8C201EC700CCFCECDCCE824EB
:10066300F8F870F38017C3EF33FFEE33FEED33FD7D
:10067300EC33FCEB33FB994002FB0FD8E9EB300181
:1006830005F8D0E0C448B201C0E00AEC4D4E4F7803
:10069300207B0070C2EAB50A0040BCC0E012070626
:1006A300D0F0D0E0200104C4C0E0C4B201C0F01215
:1006B3000494D0F0D5F0EB0204E51203EC05825369
:1006C30005FC5805534C054F4206004F06084406E7
:1006D3000849056843060E5505F24605F24505F23D
:1006E3004707AE5005572D055B2E057E2B055F236F
:1006F300057C2007972A051748000005763F3F3FF2
:1007030000790AA2D5200314300509B910020404A4
:10071300B9080104A2D52006025001042002689200
:1007230002B509005034C0E07F203003197F30A2A6
:100733000272067205500F12075DC202C206C2059D
:10074300C2087F30800F300503E9C0E01204AB30EC
:100753000503D0E0F9D0E0B509CC3005177F30B9F7
:10076300100C1204AB7F583004077F788003B9085C
:10077300031204AB3002057F2D0204AB7F20200857
:10078300F87F2B2006F322920280CF286E756C6CC3
:100793002900D2011204683001F8C201780930D56A
:1007A3000108F60205172D50434958120468240323
:1007B300B405004001E49007A99312049C743A1213
:1007C300049CD2037509040205FCEFD394077480DB
:1007D300948040037F012212019CFED39403748012
:1007E300948040037F0222EF7044EE700B9000016F
:1007F3001201B5F45293529412019C6401700B9050
:1008030000011201B54293F4529412019CFE64025A
:10081300700A9000011201B542934294EE64037092
:100823000D9000011201B5FEF45293EE4294EF6471
:1008330001704612019CFE700B9000011201B5F489
:1008430052915292EE6401700B9000011201B54275
:1008530091F4529212019C6402700A9000011201F9
:10086300B54291429212019C6403700D90000112F3
:1008730001B5FEF45291EE4292EF6402704612010A
:100883009CFE700B9000011201B5F452955296EE46
:100893006401700B9000011201B54295F452961257
:1008A300019C6402700A9000011201B542954296C0
:1008B30012019C6403700D9000011201B5FEF45205
:1008C30095EE4296EF6403704612019CFE700B9006
:1008D30000011201B5F452B152B2EE6401700B90F3
:1008E30000011201B542B1F452B212019C640270CC
:1008F3000A9000011201B542B142B212019C640395
:10090300700D9000011201B5FEF452B1EE42B2EF48
:100913006404704612019CFE700B9000011201B535
:10092300F452B352B4EE6401700B9000011201B59E
:1009330042B3F452B412019C6402700A9000011293
:1009430001B542B342B412019C6403700D900001DF
:100953001201B5FEF452B3EE42B4EF6405704612D1
:10096300019CFE700B9000011201B5F452C952CAEA
:10097300EE6401700B9000011201B542C9F452CA32
:1009830012019C6402700A9000011201B542C9422F
:10099300CA12019C6403700D9000011201B5FEF4AC
:1009A30052C9EE42CAEF6406704612019CFE700BF8
:1009B3009000011201B5F452CB52CCEE6401700BDE
:1009C3009000011201B542CBF452CC12019C640297
:1009D300700A9000011201B542CB42CC12019C6413
:1009E30003700D9000011201B5FEF452CBEE42CC20
:1009F300EF6407704912019CFF7E00700B900001A9
:100A03001201B5F452E152E2EF64014E700B900013
:100A1300011201B542E1F452E212019C6402700A30
:100A23009000011201B542E142E212019C6403709D
:100A33000D9000011201B5FFF452E1EF42E27F0095
:100A43002290020DEBF0A3EAF0A3E9F0EF6401605A
:100A530003020C8790000004F0E4A3F0A3F0A3F0DA
:100A6300A3F0A3F0A3F0FFEFC394807480948050AD
:100A73000F74872FF582E43400F583E4F00F80E7E9
:100A8300E4FFEFC3948074809480500F74072FF5B4
:100A930082E43400F583E4F00F80E790020DE0FB7D
:100AA300A3E0FAA3E0F990000A1201B5FD7C00D39C
:100AB30094037480948040037F0222ED4C700553AD
:100AC300B7EFC2BC90020DE0FBA3E0FAA3E0F990FC
:100AD300000A1201B56401700553B7EFD2BC900050
:100AE3000A1201B5FF7E006402700543B710C2BC51
:100AF300EF64034E700543B710D2BC12019CFD7C1A
:100B030000D394C07480948040037F022212019C1E
:100B1300FFE598543F4FF598ED64C04C6008EF64CF
:100B2300406003020C0A90000212037F7F807E8DD7
:100B33007D5B7C001202B69002101203AFE4FFFE4D
:100B43007D01FC900210E0F8A3E0F9A3E0FAA3E032
:100B5300FBC312034840037F0222900210E0F8A374
:100B6300E0F9A3E0FAA3E0FBC3E49BFFE49AFE747D
:100B73000199FDE498FC9002101203AF90020DE07E
:100B8300FBA3E0FAA3E0F99000011201B5FB7A00A0
:100B930064017038C28E538EFE5389BF5389CF438D
:100BA3008E40900210E0FCA3E0FDA3E0FEA3E0FF73
:100BB30078081203598F8D900210A3A3A3E0F58B3D
:100BC300C2AB5389BF538FFDD28E807AEB64024A46
:100BD3007032538EEF438E01538EF7438E0490028F
:100BE30010E0FCA3E0FDA3E0FEA3E0FF78081203FE
:100BF300598FD6900210A3A3A3E0F5D753AFFB43BD
:100C03008E1080427F022290020DE0FBA3E0FAA344
:100C1300E0F912019CFF7E0070149000081201B5E8
:100C230064017005438E20801D538EDF8018EF64AE
:100C3300804E70129000081201B56401700543875D
:100C430080800353877F90020DE0FBA3E0FAA3E0CB
:100C5300F99000091201B564017004D2AC8002C29C
:100C6300AC9000071201B564017004D29C8002C2EB
:100C73009C90000B1201B554C0FFE5A2543F4FF501
:100C8300A27F00227F0222E4900201F0A3F0A3F0EE
:100C9300A3F0C390025DE0941F90025CE0940050C7
:100CA3002A120066D3EF940074809480401D1219B9
:100CB3003D90025CE475F00112022CFC748C25F06B
:100CC300F58274013CF583EFF080C7C390025DE0C9
:100CD300940790025CE094005003020E819002019D
:100CE300E0FEA3E0FFC390025DE09FFD90025CE0A5
:100CF3009EFCC3ED9407EC94005003020E34748CF5
:100D03002FF58274013EF583E06455601090020272
:100D1300E004F070C8900201E004F080C09002018A
:100D2300E0FEA3E0FF248DF58274013EF583E064C9
:100D3300AA6010900202E004F070A2900201E004A5
:100D4300F0809A748E2FF58274013EF583E060097A
:100D5300900202E02402020E0F900201E0FCA3E0E5
:100D6300FD2490F58274013CF583E0900203F0A327
:100D7300E4F074912DF58274013CF583E02407FFC0
:100D8300E433FE900204E02FF0900203E03EF0E033
:100D9300FEA3E0FFD39426EE94004008900202E005
:100DA30024038068900201E0FCA3E0FDC390025D90
:100DB300E09DFD90025CE09CFCD3EF9DEE9C5071A6
:100DC300900201E0FEA3E0248CF974013EFA7B015A
:100DD300900204E024FFFD900203E034FFFC121AAA
:100DE300F7AD07900203E0FAA3E0FB900201E0FEF7
:100DF300A3E0FF2BFBEE3AFA748B2BF58274013AD6
:100E0300F583E06D6011900202E02403F09002018B
:100E1300E03400F0020CE0121142900203E0FEA362
:100E2300E0FF900202E02FF0900201E03EF0020C9E
:100E3300E0900201E0FEA3E0FFC390025DE09FFDAE
:100E430090025CE09EFCF0A3EDF0D39400EC9400E0
:100E5300402C748C2FF974013EFA90022C7401F02B
:100E6300A3EAF0A3E9F090025CE0FFA3E090022F75
:100E7300CFF0A3EFF07B017A01798C120E822290DE
:100E83000229EBF0A3EAF0A3E9F0900231EBF0A31F
:100E9300EAF0A3E9F090022CE0F9A3E0FAA3E090D2
:100EA3000234C9F0A3EAF0A3E9F0900229E0FBA31E
:100EB300E0FAA3E04A4B600CA3E0FBA3E0FAA3E053
:100EC3004A4B70077B007A00790022900234E0FBE2
:100ED300A3E0FAA3E0F9C003C002C001900231A36A
:100EE300E0FAA3E0F9D3D082D083D0E0E99582EA97
:100EF30095834033900234A3E0FAA3E0F990022FE4
:100F0300E0FEA3E0FFE92FF9EA3EFAC003C002C006
:100F130001A3A3E0FAA3E0F9D3D082D083D0E0E920
:100F23009582EA95834056E4900237F0A3F090024D
:100F33002FE0FEA3E0FF900237E0FCA3E0FDC39F98
:100F4300EC9E4003020FDD900234E0FBA3E0FAA322
:100F5300E0F98D828C831201B5FF900231E0FBA38F
:100F6300E0FAA3E0F98D828C83EF1201F49002384A
:100F7300E004F07006900237E004F080B190022F95
:100F8300E0FFA3E0900237CFF0A3EFF0900237E049
:100F9300FEA3E0FFD39400EE9400403E900234E0C1
:100FA300FBA3E0FAA3E0F9EF24FFFFEE34FFFE8F8B
:100FB30082F5831201B5FD900231E0FBA3E0FAA3B1
:100FC300E0F98F828E83ED1201F4900238E024FF62
:100FD300F0900237E034FFF080B2900229E0FBA3E7
:100FE300E0FAA3E0F922E490020EF0780F7C027D90
:100FF300017BFF7A1F7908FE7F0A1201767BFF7A55
:101003001E79CF1217F3900227EEF0A3EFF07A1EAA
:1010130079CF12186890020EEFF07BFF7A1E79D613
:101023001217F3900227EEF0A3EFF07A1E79D6128F
:10103300186890020EEFF07BFF7A1E79E71217F320
:10104300900227EEF0A3EFF090020EE0FF7E007B0C
:10105300FF7A1E79E712187190020EEFF07BFF7A88
:101063001E79EF1217F3900227EEF0A3EFF0900230
:101073000EE0FF7E007BFF7A1E79EF12187190025B
:101083000EEFF07BFF7A1E79F51217F3900227EE2D
:10109300F0A3EFF090020EE0FF7E007BFF7A1E7953
:1010A300F512187190020EEFF07BFF7A1E79FC1295
:1010B30017F3900227EEF0A3EFF090020EE0FF7E0D
:1010C300007BFF7A1E79FC12187190020EEFF090EC
:1010D300021C74FFF0A3741EF0A374FEF0E4A3F0EB
:1010E3007B017A02790F1204CD7B017A02790F1208
:1010F30017F3900227EEF0A3EFF090020EE0FF7ECD
:10110300007B017A02790F12187190020EEFF07BC7
:10111300FF7A1F79061217F3900227EEF0A3EFF080
:1011230090020EE0FF7E007BFF7A1F790612187192
:1011330090020EEFF0FB7A007D037F010218D4903A
:101143000205EEF0A3EFF0900205E0FEA3E0248F8A
:10115300F58274013EF583E0FF1203EC117E00116A
:10116300810111840211870311A60411AB0511B289
:101173000612720812750E0000129A021DC0020FA9
:10118300E9021EBC900205E0FEA3E02492F58274FE
:10119300013EF583E0900200F0E4FBFA7D037F0358
:1011A3000218D49001AB800390018A7401F022905D
:1011B3000205E0FCA3E0FD2490F58274013CF58375
:1011C300E0FE74912DF58274013CF583E0FDEDFFA3
:1011D30090020CEEF0A3EFF0E490020AF0A3F0907B
:1011E300020CE0FEA3E0FFC390020BE09F90020A13
:1011F300E09E400302129AE0FEA3E0FF900205E0A6
:10120300FCA3E0FD2FFBEC3EFA74942BF5827401F2
:101213003AF583E0900207F0A3E4F074952BF5828E
:1012230074013AF583E0FF900208E02FF090020783
:10123300E03400F074922DF974013CFA7B019002C2
:101243000AE0FEA3E029F9EA3EFA12176D900209BB
:10125300EFF0900208E02404FF900207E03400FE60
:1012630090020BE02FF090020AE03EF00211E2023E
:1012730015C8900205E0FEA3E0FF2492F5827401F5
:101283003EF583E0FD74932FF58274013EF583E010
:10129300FEAF05FD121EC622900216EBF0A3EAF084
:1012A300A3E9F0EF1203EC12D21412E9151300169E
:1012B300131717132E1813451A135C1B13721C13E1
:1012C3008838139E3913B43A13CA3D000013E390D0
:1012D3000216E0FBA3E0FAA3E0F9A3E0FCA3E0FD20
:1012E30012004E0213DE900216E0FBA3E0FAA3E025
:1012F300F9A3E0FCA3E0FD121E8B0213DE9002169D
:10130300E0FBA3E0FAA3E0F9A3E0FCA3E0FD121CD9
:10131300910213DE900216E0FBA3E0FAA3E0F9A327
:10132300E0FCA3E0FD121CBD0213DE900216E0FBFD
:10133300A3E0FAA3E0F9A3E0FCA3E0FD1200260278
:1013430013DE900216E0FBA3E0FAA3E0F9A3E0FCAE
:10135300A3E0FD121CE90213DE900216E0FBA3E0FA
:10136300FAA3E0F9A3E0FCA3E0FD121E0E806C904B
:101373000216E0FBA3E0FAA3E0F9A3E0FCA3E0FD7F
:10138300121E278056900216E0FBA3E0FAA3E0F9B1
:10139300A3E0FCA3E0FD121E408040900216E0FB98
:1013A300A3E0FAA3E0F9A3E0FCA3E0FD121E598039
:1013B3002A900216E0FBA3E0FAA3E0F9A3E0FCA362
:1013C300E0FD121D158014900216E0FBA3E0FAA3C2
:1013D300E0F9A3E0FCA3E0FD121E7290021BEFF004
:1013E30090021BE0FF22900222EBF0A3EAF0A3E9B4
:1013F300F0A31203BB0000000012019CFFE4FCFDFC
:10140300FE9002251203AF900225E0FCA3E0FDA3AA
:10141300E0FEA3E0FF780812036C9002251203AFED
:10142300900225E0F8A3E0F9A3E0FAA3E0FBC000F3
:10143300C001C002C003900222E0FBA3E0FAA3E0D4
:10144300F99000011201B5FFD003D002D001D00002
:10145300EB4FFFEAFEE9FDE8FC9002251203AF9093
:101463000225E0FCA3E0FDA3E0FEA3E0FF78081261
:10147300036C9002251203AF900225E0F8A3E0F974
:10148300A3E0FAA3E0FBC000C001C002C0039002C6
:1014930022E0FBA3E0FAA3E0F99000021201B5FFFA
:1014A300D003D002D001D000EB4FFFEAFEE9FDE804
:1014B300FC9002251203AF900225E0FCA3E0FDA3FC
:1014C300E0FEA3E0FF780812036C9002251203AF3D
:1014D300900225E0F8A3E0F9A3E0FAA3E0FBC00043
:1014E300C001C002C003900222E0FBA3E0FAA3E024
:1014F300F99000031201B5FFD003D002D001D00050
:10150300EB4FFFEAFEE9FDE8FC9002251203AF90E2
:101513000225E0FCA3E0FDA3E0FEA3E0FF22AD076C
:10152300E4FFFE90018BE0640170020F22121D4163
:101533007D02121D41E4FD121D417D04121D41C0B7
:1015430006C007900221E0FCA3E0FDA3E0FEA3E0B8
:10155300FF7818120359AD07D007D006121D41C0FA
:1015630006C007900221E0FCA3E0FDA3E0FEA3E098
:10157300FF7810120359AD07D007D006121D41C0E2
:1015830006C007900221E0FCA3E0FDA3E0FEA3E078
:10159300FF7808120359AD07D007D006121D41C0CA
:1015A30006C007900221E0FCA3A3A3E0FFE4AD077C
:1015B300D007D006121D41AB07AA067D037F071291
:1015C30018D47F0122E4FD7F14121B41E4FD7F1533
:1015D300121BC79002211203BB000000007F1612EA
:1015E30015219002211203BB000000007F17121582
:1015F300217B007A007900E4900220F0A3F07F18A9
:101603001219FB9002211203BB000000007F1A1283
:1016130015217B007A007900E4900220F0A3F07F8B
:10162300381219A07B007A007900E4900220F0A31D
:10163300F07F391219A09002211203BB00000000B1
:101643007F3A1215217B007A007900E4900220F0A2
:10165300A3F07F3D0219A0787FE4F6D8FD758121C0
:101663000216A1021E9FE493A3F8E493A34003F69A
:101673008001F208DFF48029E493A3F85407240CD3
:10168300C8C333C4540F4420C8834004F4568001B4
:1016930046F6DFE4800B0102040810204080901C12
:1016A30064E47E019360BCA3FF543F30E509541FFB
:1016B300FEE493A360010ECF54C025E060A840B8B8
:1016C300E493A3FAE493A3F8E493A3C8C582C8CA36
:1016D300C583CAF0A3C8C582C8CAC583CADFE9DE09
:1016E300E780BEC0E0C083C082C0D075D000C00612
:1016F300C007309831C298900006E070299000042A
:10170300E0C39480748094804002E4F0900004E08D
:10171300FF04F074072FF582E43400F583E599F0B4
:101723009000057405F0309934C299900002E0FFEF
:10173300900001E0FE6F602074872EF582E4340090
:10174300F583E0F599900001E004F0C39480748080
:1017530094804009E4F08005900003E4F0D007D0C2
:1017630006D0D0D082D083D0E03290020EEBF0A32B
:10177300EAF0A3E9F012019C900211F0FD90000140
:101783001201B5900212F09000021201B5900213FB
:10179300F0A3E4F09000031201B5FF900214E02FD0
:1017A300F0900213E03400F0AF05121C3575F0021F
:1017B300EFA42442F582E5F03402F583E0FF9002C2
:1017C30012E06F60037F0022900211E0FF90020E8F
:1017D300E0FBA3E0FAA3E02404F9E43AFA9002134D
:1017E300E0FDA3E0900219CDF0A3EDF012129B22CD
:1017F300900219EBF0A3EAF0A3E9F0A31203BB00F4
:10180300000000900219E0FBA3E0FAA3E04A4B704A
:1018130005FFFEFDFC2290021C1203BB000000002A
:10182300900219E0FBA3E475F00112022CA9F0FA6F
:1018330012019C602190021CE0FCA3E0FDA3E0FEEA
:10184300A3E02401FFE43EFEE43DFDE43CFC900202
:101853001C1203AF80CA90021CE0FCA3E0FDA3E0CE
:10186300FEA3E0FF2290020EE0FF7E007BFF9002CA
:1018730024EBF0A3EAF0A3E9F0900222EEF0A3EF49
:10188300F024C9F974013EFA7B01C002C001A3E050
:10189300F9A3E0FAA3E090022CC9F0A3EAF0A3E9CC
:1018A300F0900227E0FFA3E090022FCFF0A3EFF028
:1018B300D001D002120E82900227E0FEA3E0FF9037
:1018C3000223E02FF0900222E03EF0E0FEA3E0FFCF
:1018D30022900225EAF0A3EBF09001C37455F0A324
:1018E30074AAF0A3EDF0A3EFF0900225E0FCA3E0CF
:1018F300FDEC9001C7F0EDA3F0900226E02407F081
:10190300900225E03400F07B017A0179C3A3E0243F
:10191300FFFD900225E034FFFC121AF7AE07900298
:1019230025E0FCA3E0FD24C2F58274013CF583EFBE
:10193300F07B017A0179C3021A569001FAE0FBA306
:10194300E0FAA3E0F9C003C002C001A3E0FBA3E0F7
:10195300FAA3E0F9D082D083D0E06B7008E9658206
:101963007003EA658360359001FDA3E0FAA3E0C349
:101973009001C39582EA9583400E9001FD7401F0B6
:10198300A37401F0A374ACF09001FDE0FBA3E47534
:10199300F00112022CA9F0FA12019CFF2290021D01
:1019A300EBF0A3EAF0A3E9F0AD07E4FFFE90018BAF
:1019B300E0640170020F22121D41E4FD121D4190EB
:1019C3000220E0FD121D41900221E0FD121D419015
:1019D300021DE0FBA3E0FAA3E0F9A3E0FDA3E0907E
:1019E3000227CDF0A3EDF0121871AB07AA067D0311
:1019F3007F071218D47F012290021DEBF0A3EAF0B7
:101A0300A3E9F0AD07E4FFFE90018BE064017002EF
:101A13000F22121D417D03121D41900220E0FD1291
:101A23001D41900221E0FD121D4190021DE0FBA328
:101A3300E0FAA3E0F9A3E0FDA3E0900227CDF0A331
:101A4300EDF0121871AB07AA067D037F071218D4B5
:101A53007F0122900227EBF0A3EAF0A3E9F0A3ECC5
:101A6300F0A3EDF0900227E0FBA3E0FAA3E04A4BDA
:101A73006034A3E07002A3E0602C90022A74FFF5A7
:101A8300F012022C45F0601E900227E0FBA3E0FA5F
:101A9300A3E0F912019CFF120006900228E475F0FE
:101AA3000112021680D422C0E0C083C082C0D07568
:101AB300D000C007E5CE30E404C2098029900107B5
:101AC300E0C39480748094804002E4F0900107E0C6
:101AD300FF04F074092FF582E43401F583E5CFF0B8
:101AE3009001087405F075CDC0D007D0D0D082D056
:101AF30083D0E032900227EBF0A3EAF0A3E9F0A34E
:101B0300ECF0A3EDF0E4A3F0FFFED390022BE09FF3
:101B130090022AE09E4021900227E0FBA3E475F0A7
:101B23000112022CA9F0FA12019CFD90022CE02D67
:101B3300F00FBF00010E80D290022CE0FF22900232
:101B43001CEDF0AC07E4FFFE90018BE06401700232
:101B53000F22AD04121D417D01121D41E4FD121D32
:101B6300417D01121D4190021CE07003FD80027D46
:101B730001121D41AB07AA067D037F071218D47F0C
:101B830001229002027410F0E4900201F07B017ACA
:101B93000279017F051207CD9002027404F0E490EC
:101BA3000201F07B017A0279017F031207CD9002D3
:101BB300027420F0E4900201F07B017A0279017F44
:101BC300050207CD90021CEDF0AC07E4FFFE900187
:101BD3008BE0640170020F22AD04121D417D0412DB
:101BE3001D41E4FD121D417D01121D4190021CE0C7
:101BF300FD121D41AB07AA067D037F071218D47F90
:101C030001229002017440F0A37401F0A31203BBFC
:101C13000001C2009002087401F0E4A3F0A304F0F1
:101C2300E4A3F0A37480F07B017A0279017F0102BF
:101C33000A44900215EFF012001EE4FEEEC39F501B
:101C43001D75F002EEA42441F582E5F03402F5831C
:101C5300E0FD900215E0FCED6C60030E80DEAF0644
:101C6300224102590041025A0042025C000058021C
:101C730041140115041602170218031A021B031C50
:101C830003380039003A023D004101890000120087
:101C93003F90021C1203AF90021CE0FCA3E0FDA3E3
:101CA300E0FEA3E0FF9002211203AF7F161215217D
:101CB300EF64017F0070027F012212003F90021C3B
:101CC3001203AF90021CE0FCA3E0FDA3E0FEA3E03F
:101CD300FF9002211203AF7F17121521EF64017FDA
:101CE3000070027F012212003F90021C1203AF908A
:101CF300021CE0FCA3E0FDA3E0FEA3E0FF900221B1
:101D03001203AF7F1A121521EF64017F0070027F67
:101D1300012212003F90021C1203AF90021CE0FC50
:101D2300A3E0FDA3E0FEA3E0FF9002211203AF7F37
:101D33003A121521EF64017F0070027F01229002A5
:101D430025EEF0A3EFF024C9F974013EFA7B01ED0F
:101D53001201E2900226E004F07006900225E004EE
:101D6300F0900225E0FEA3E0FF22900002E024872A
:101D7300F582E43400F583EFF0900002E004F0C351
:101D83009480748094804002E4F0900003E0700437
:101D930004F0D299229001FA7401F0A37401F0A324
:101DA30074ACF09001FD7401F0A37401F0A374AC62
:101DB300F0E490018BF090020074FFF022E4FF90B6
:101DC3000189E0700DFEFD121D419001897401F03F
:101DD30080077E007D01121D41EFFB7A007D03E445
:101DE300FF0218D4EFB40A07740D121DF2740A30FF
:101DF3009811A899B8130CC2983098FDA899C29865
:101E0300B811F63099FDC299F59922AF05900220D9
:101E1300ECF0A3EFF07F1B1219FBEF64017F00705E
:101E2300027F0122AF05900220ECF0A3EFF07F1CAC
:101E33001219FBEF64017F0070027F0122AF05904E
:101E43000220ECF0A3EFF07F381219A0EF64017FBA
:101E53000070027F0122AF05900220ECF0A3EFF0A7
:101E63007F391219A0EF64017F0070027F0122AF56
:101E730005900220ECF0A3EFF07F3D1219A0EF6470
:101E8300017F0070027F0122121EAFAD077F151282
:101E93001BC7EF64017F0070027F0122121B8512B2
:101EA3001C05D2AF121D98120C8A80FB90021CEC09
:101EB300F0A3EDF012019CFF22E4FBFA7D037F0205
:101EC3000218D490020EEFF0A3EDF0227B227022D1
:101ED3003A22006632686178386D6E316678763200
:101EE30074736E00222C2276223A2200312E302E79
:101EF3003000222C226D223A0032002C226E223A2C
:0F1F03002564007D0000000000000000000000C9
:00000001FF
