:100000000206F0011C00011D00003202000EB2CCFD
:040010003232323224
:03001B0002000AD6
:1000230002077C12051AFF600C1208AF740129F94C
:10003300E43AFA80EE227D607C09ED1D70011C1408
:060043004C70F7DFF12212
:03004B000208396F
:10006300020011750940750A01750E00750DC27500
:100073000C01750B00751001E4F511751201F513F0
:10008300751480FB7A0079097F0112031D7BFF7AC7
:060093000879D6020026E8
:03009B000200124E
:1000A300020013EFD394077480948040037F0122EE
:1000B30012051AFED394037480948040037F0222B6
:1000C300EF7044EE700B900001120533F45293521B
:1000D3009412051A6401700B9000011205334293C8
:1000E300F4529412051AFE6402700A90000112057C
:1000F3003342934294EE6403700D90000112053372
:10010300FEF45293EE4294EF6401704612051AFE18
:10011300700B900001120533F452915292EE640178
:10012300700B9000011205334291F4529212051A9A
:100133006402700A90000112053342914292120543
:100143001A6403700D900001120533FEF45291EE10
:100153004292EF6402704612051AFE700B90000182
:10016300120533F452955296EE6401700B90000120
:100173001205334295F4529612051A6402700A90DE
:1001830000011205334295429612051A6403700D5D
:10019300900001120533FEF45295EE4296EF64038C
:1001A300704612051AFE700B900001120533F452CB
:1001B300B152B2EE6401700B90000112053342B1EB
:1001C300F452B212051A6402700A90000112053348
:1001D30042B142B212051A6403700D900001120578
:1001E30033FEF452B1EE42B2EF6404704612051AC4
:1001F300FE700B900001120533F452B352B4EE6457
:1002030001700B90000112053342B3F452B412058E
:100213001A6402700A90000112053342B342B41209
:10022300051A6403700D900001120533FEF452B3F6
:10023300EE42B4EF6405704612051AFE700B90008F
:1002430001120533F452C952CAEE6401700B9000D7
:100253000112053342C9F452CA12051A6402700A24
:1002630090000112053342C942CA12051A64037091
:100273000D900001120533FEF452C9EE42CAEF6439
:1002830006704612051AFE700B900001120533F436
:1002930052CB52CCEE6401700B9000011205334235
:1002A300CBF452CC12051A6402700A9000011205B5
:1002B3003342CB42CC12051A6403700D9000011235
:1002C3000533FEF452CBEE42CCEF640770491205BE
:1002D3001AFF7E00700B900001120533F452E152B5
:1002E300E2EF64014E700B90000112053342E1F41A
:1002F30052E212051A6402700A9000011205334299
:10030300E142E212051A6403700D900001120533F5
:10031300FFF452E1EF42E27F00228B158A16891720
:10032300EF64016003020517752101F522F523F53A
:1003330024F525F526F527FFEFC394807480948078
:10034300500F74802FF582E43400F583E4F00F80BE
:10035300E7E4FFEFC3948074809480500F74002F00
:10036300F582E43400F583E4F00F80E7AB15AA16B9
:10037300A91790000A120533FD7C00D394037480FF
:10038300948040037F0222ED4C700553B7EFC2BC4B
:10039300AB15AA16A91790000A120533640170055C
:1003A30053B7EFD2BC90000A120533FF7E006402FC
:1003B300700543B710C2BCEF64034E700543B7101A
:1003C300D2BC12051AFD7C00D394C0748094804083
:1003D300037F022212051AFFE598543F4FF598ED6B
:1003E30064C04C6008EF644060030204A490000200
:1003F30012068A7F807E8D7D5B7C001205D48F1B65
:100403008E1A8D198C18E4FFFE7D01FCAB1BAA1A12
:10041300A919A818C312066640037F0222C3E495F4
:100423001BF51BE4951AF51A74019519F519E49552
:1004330018F518AB15AA16A917900001120533FB7E
:100443007A006401702CC28E538EFE5389BF538988
:10045300CF438E40AF1BAE1AAD19AC187808120605
:10046300778F8D851B8BC2AB5389BF538FFDD28E84
:100473008069EB64024A7026538EEF438E01538EDC
:10048300F7438E04AF1BAE1AAD19AC1878081206E9
:10049300778FD6851BD753AFFB438E10803D7F02EA
:1004A30022AB15AA16A91712051AFF7E0070149025
:1004B300000812053364017005438E20801D538E9E
:1004C300DF8018EF64804E701290000812053364C9
:1004D300017005438780800353877FAB15AA16A954
:1004E3001790000912053364017004D2AC8002C274
:1004F300AC90000712053364017004D29C8002C2E1
:100503009C90000B12053354C0FFE5A2543F4FF5F6
:10051300A27F00227F0222BB010689828A83E02216
:100523005002E722BBFE02E32289828A83E49322FC
:10053300BB010CE58229F582E5833AF583E022507D
:1005430006E92582F8E622BBFE06E92582F8E222C7
:10055300E58229F582E5833AF583E49322BB011012
:10056300E58229F582E5833AF583E0F5F0A3E022FD
:100573005009E92582F886F008E622BBFE0AE92540
:1005830082F8E2F5F008E222E5832AF583E993F5A0
:10059300F0A3E9932275F008758200EF2FFFEE3385
:1005A300FECD33CDCC33CCC58233C5829BED9AECE3
:1005B30099E58298400CF582EE9BFEED9AFDEC994D
:1005C300FC0FD5F0D6E4CEFBE4CDFAE4CCF9A88257
:1005D30022B800C1B90059BA002DEC8BF084CFCEFC
:1005E300CDFCE5F0CBF97818EF2FFFEE33FEED33BA
:1005F300FDEC33FCEB33FB10D703994004EB99FB81
:100603000FD8E5E4F9FA227818EF2FFFEE33FEED69
:1006130033FDEC33FCC933C910D7059BE99A400776
:10062300EC9BFCE99AF90FD8E0E4C9FAE4CCFB228D
:1006330075F010EF2FFFEE33FEED33FDCC33CCC856
:1006430033C810D7079BEC9AE899400AED9BFDEC61
:100653009AFCE899F80FD5F0DAE4CDFBE4CCFAE4A0
:10066300C8F922EB9FF5F0EA9E42F0E99D42F0E8DB
:100673009C45F022E8600FECC313FCED13FDEE1371
:10068300FEEF13FFD8F122BB010DE58229F582E5C8
:10069300833AF5830206C75007E92582F80206BAB2
:1006A300BBFE07E92582F80206D3E58229F582E538
:1006B300833AF5830206E0E6FB08E6F908E6FA0862
:1006C300E6CBF822E0F8A3E0F9A3E0FAA3E0FB22EB
:1006D300E2FB08E2F908E2FA08E2CBF822E493F835
:1006E300740193F9740293FA740393FB22787FE401
:1006F300F6D8FD7581290207370207EDE493A3F8C5
:10070300E493A34003F68001F208DFF48029E49325
:10071300A3F85407240CC8C333C4540F4420C8831C
:100723004004F456800146F6DFE4800B010204081E
:1007330010204080900003E47E019360BCA3FF542B
:100743003F30E509541FFEE493A360010ECF54C06C
:1007530025E060A840B8E493A3FAE493A3F8E493F4
:10076300A3C8C582C8CAC583CAF0A3C8C582C8CAFC
:10077300C583CADFE9DEE780BEC0E0C083C082C0B4
:10078300D075D000C007309828C298E5277022C3DF
:10079300E5259480748094804003752500AF25057A
:1007A3002574002FF582E43400F583E599F075266E
:1007B3000530992BC299E522652360207480252298
:1007C300F582E43400F583E0F5990522C3E522942C
:1007D300807480948040087522008003752400D0C3
:1007E30007D0D0D082D083D0E03212087F120066C7
:1007F300D2AF7F01120039D3E52694007480948030
:1008030040F01526E52670EAD3E52594007480941C
:1008130080401EE4F508E508C395255014740025AF
:1008230008F582E43400F583E0FF1208AF05088081
:10083300E5E4F52580BCC0E0C083C082C0D075D09C
:1008430000C007E5CE30E404C2008022C3E528944B
:1008530080748094804003752800AF2805287400B5
:100863002FF582E43401F583E5CFF075290575CDC5
:10087300C0D007D0D0D082D083D0E032750A10E444
:10088300F509FB7A0079097F051200A6750A04E4CD
:10089300F509FB7A0079097F031200A6750A20E4A3
:1008A300F509FB7A0079097F050200A674802523E8
:1008B300F582E43400F583EFF00523C3E523948048
:1008C300748094804003E4F523E5247005752401C6
:1008D300D299225354433847314B30384120554144
:1008E30052543120546573742050726F6772616D76
:0E08F3006D65210D0A000102040810204080EE
:00000001FF
