:1000000002064E011000011100003202000EB2CCB7
:040010003232323224
:10001B0002000A12006612079ED2AFE4F51285C8E1
:10002B00110512D3E51294077480948040F0E4F527
:03003B001280EB45
:03004B0002075851
:10006300020011750910E4F508FB7A0079087F0591
:100073001203D7750904E4F508FB7A0079087F03B6
:100083001203D7750920E4F508FB7A0079087F0588
:030093000203D78E
:03009B000200124E
:1000A300020013AD07EDD394047480948040037F62
:1000B3000122ED600302017BC28C9000021206F361
:1000C30064017004D2A98002C2A99000011206F350
:1000D300FED394037480948040037F0222EEFF7E5C
:1000E30000700553B7FDC2B9EF64014E700553B7F5
:1000F300FDD2B9EF64024E700543B702C2B9EF6493
:10010300034E700543B702D2B91206DAFEC3940355
:100113007480948040037F0222E58954FC4EF58964
:100123009000031206F3FF7E0064017003538E7F79
:10013300EF4E7003438E80EF64024E7005438904D3
:1001430080035389FB9000041206F3640170054396
:100153008F018003538FFE900005120720E5F0F511
:100163008C900005120720F58A9000071206F364AD
:10017300017002D28C7F0022ED6401600302024809
:10018300C28E9000021206F364017004D2AB8002A7
:10019300C2AB9000011206F3FED3940374809480E3
:1001A30040037F0222EEFF7E00700553B7F7C2BB08
:1001B300EF64014E700553B7F7D2BBEF64024E7084
:1001C3000543B708C2BBEF64034E700543B708D2BB
:1001D300BB1206DAFEC394037480948040037F024B
:1001E30022EEC454F0FFE58954CF4FF58990000304
:1001F3001206F3FF7E0064017003538EBFEF4E704F
:1002030003438E40EF64024E7005438940800353DD
:1002130089BF9000041206F364017005438F0280C6
:1002230003538FFD900005120720E5F0F58D900034
:1002330005120720F58B9000071206F36401700284
:10024300D28E7F0022ED6402707C538EEF90000209
:100253001206F36401700543AF04800353AFFB90B0
:1002630000031206F3FED394027480948040037F4C
:100273000222EEFF7E0064017003538EFBEF4E708B
:1002830003438E04EF64024E7005438E08800353CC
:100293008EF79000041206F364017005438F048007
:1002A30003538FFB900005120720E5F0F5D690006D
:1002B30005120720F5D79000071206F364017003B7
:1002C300438E107F0022ED6403707C53D1F79000BE
:1002D300021206F36401700543AF20800353AFDFBE
:1002E3009000031206F3FED39402748094804003BB
:1002F3007F0222EEFF7E006401700353D1FDEF4EB7
:10030300700343D102EF64024E700543D1048003AE
:1003130053D1FB9000041206F36401700543D1012D
:10032300800353D1FE900005120720E5F0F5D49029
:100333000005120720F5D59000071206F36401703B
:100343000343D1087F0022ED640460030203D45306
:10035300D17F9000021206F36401700543AF408021
:100363000353AFBF9000031206F3FD7C00D3940246
:100373007480948040037F0222ED64014C70035328
:10038300D1DF9000031206F3700343D120900003E2
:100393001206F36402700543D140800353D1BF902A
:1003A30000041206F36401700543D110800353D196
:1003B300EF900005120720FDACF0ECF5D2AF058FEE
:1003C300D39000071206F36401700343D1807F00CA
:1003D300227F0222EFD394077480948040037F012D
:1003E300221206DAFED394037480948040037F02C2
:1003F30022EF7044EE700B9000011206F3F4529357
:1004030052941206DA6401700B9000011206F34253
:1004130093F452941206DAFE6402700A90000112F9
:1004230006F342934294EE6403700D9000011206AA
:10043300F3FEF45293EE4294EF640170461206DA2F
:10044300FE700B9000011206F3F452915292EE6487
:1004530001700B9000011206F34291F452921206BE
:10046300DA6402700A9000011206F342914292127A
:1004730006DA6403700D9000011206F3FEF4529144
:10048300EE4292EF640270461206DAFE700B9000A1
:10049300011206F3F452955296EE6401700B90002C
:1004A300011206F34295F452961206DA6402700AB8
:1004B3009000011206F3429542961206DA64037025
:1004C3000D9000011206F3FEF45295EE4296EF648E
:1004D3000370461206DAFE700B9000011206F3F465
:1004E30052B152B2EE6401700B9000011206F34256
:1004F300B1F452B21206DA6402700A9000011206D5
:10050300F342B142B21206DA6403700D9000011295
:1005130006F3FEF452B1EE42B2EF640470461206E3
:10052300DAFE700B9000011206F3F452B352B4EEEC
:100533006401700B9000011206F342B3F452B4123B
:1005430006DA6402700A9000011206F342B342B461
:100553001206DA6403700D9000011206F3FEF452E2
:10056300B3EE42B4EF640570461206DAFE700B90E8
:1005730000011206F3F452C952CAEE6401700B90E3
:1005830000011206F342C9F452CA1206DA64027079
:100593000A9000011206F342C942CA1206DA640342
:1005A300700D9000011206F3FEF452C9EE42CAEF39
:1005B300640670461206DAFE700B9000011206F311
:1005C300F452CB52CCEE6401700B9000011206F38F
:1005D30042CBF452CC1206DA6402700A9000011284
:1005E30006F342CB42CC1206DA6403700D9000018D
:1005F3001206F3FEF452CBEE42CCEF6407704912BD
:1006030006DAFF7E00700B9000011206F3F452E14C
:1006130052E2EF64014E700B9000011206F342E1C7
:10062300F452E21206DA6402700A9000011206F331
:1006330042E142E21206DA6403700D9000011206F1
:10064300F3FFF452E1EF42E27F0022787FE4F6D831
:10065300FD75812002069502001EE493A3F8E4933E
:10066300A34003F68001F208DFF48029E493A3F8A2
:100673005407240CC8C333C4540F4420C883400414
:10068300F456800146F6DFE4800B010204081020D3
:100693004080900003E47E019360BCA3FF543F308D
:1006A300E509541FFEE493A360010ECF54C025E077
:1006B30060A840B8E493A3FAE493A3F8E493A3C82F
:1006C300C582C8CAC583CAF0A3C8C582C8CAC583C0
:1006D300CADFE9DEE780BEBB010689828A83E022A6
:1006E3005002E722BBFE02E32289828A83E493223B
:1006F300BB010CE58229F582E5833AF583E02250BC
:1007030006E92582F8E622BBFE06E92582F8E22205
:10071300E58229F582E5833AF583E49322BB011050
:10072300E58229F582E5833AF583E0F5F0A3E0223B
:100733005009E92582F886F008E622BBFE0AE9257E
:1007430082F8E2F5F008E222E5832AF583E993F5DE
:10075300F0A3E99322C0E0C083C082C0D075D0006B
:10076300C007E5CE30E404C2008022C3E5139480C1
:10077300748094804003751300AF13051374002F26
:10078300F582E43400F583E5CFF075140575CDC02B
:10079300D007D0D0D082D083D0E032E4F508F50979
:1007A300750A01F50BF50C750DFF750E10750F012C
:0907B300FB7A007908FF0200A6A0
:00000001FF
